:100000000C9463000C948B000C948B000C948B006C
:100010000C948B000C948B000C948B000C948B0034
:100020000C948B000C948B000C948B000C948B0024
:100030000C948B000C948B000C948B000C948B0014
:100040000C944A070C948B000C94BA070C949407F8
:100050000C948B000C948B000C948B000C948B00F4
:100060000C94EC070C948B00000000002400270087
:100070002A0000000000250028002B0000000000DE
:1000800023002600290004040404040404040202DA
:100090000202020203030303030301020408102007
:1000A0004080010204081020010204081020000012
:1000B0000008000201000003040700000000000027
:1000C00000000B09610E11241FBECFEFD8E0DEBF88
:1000D000CDBF12E0A0E0B1E0E2E7F2E202C005909D
:1000E0000D92AE3CB107D9F724E0AEECB2E001C00E
:1000F0001D92A53CB207E1F710E0C2E6D0E004C0D3
:100100002197FE010E94340FC136D107C9F70E9422
:10011000C7090C942C110C94000096E0899FD00123
:100120001124AA5BBB4F90967C936E935F9791E0EE
:1001300091969C939197E091B304F091B4049091BF
:10014000B204992339F0309751F0811108C08091A1
:1001500062040994309719F05C968C91FACF089557
:10016000833081F028F4813099F08230A9F008952D
:100170008730A9F08830C9F08430B1F480918000D4
:100180008F7D03C0809180008F77809380000895D9
:1001900084B58F7784BD089584B58F7DFBCF809122
:1001A000B0008F778093B00008958091B0008F7D6C
:1001B000F9CFCF93DF93282F30E0F901E255FF4FBD
:1001C0008491F901E656FF4FD491F901EA57FF4FA8
:1001D000C491CC23A1F081110E94B000EC2FF0E07B
:1001E000EE0FFF1FE458FF4FA591B491EC91ED2362
:1001F00081E090E009F480E0DF91CF91089580E004
:1002000090E0FACF1F93CF93DF93282F30E0F901CE
:10021000E255FF4F8491F901E656FF4FD491F90161
:10022000EA57FF4FC491CC23A9F0162F81110E94E9
:10023000B000EC2FF0E0EE0FFF1FEE58FF4FA5913E
:10024000B4918FB7F894EC91111108C0D095DE23CA
:10025000DC938FBFDF91CF911F910895DE2BF8CFF4
:10026000CF93DF9390E0FC01E656FF4F24918A572D
:100270009F4FFC0184918823C9F090E0880F991F5B
:10028000FC01E859FF4FA591B491FC01EE58FF4FD6
:10029000C591D49161110DC09FB7F8948C912095B0
:1002A00082238C938881282328839FBFDF91CF915D
:1002B0000895623051F49FB7F8943C91822F809555
:1002C00083238C93E8812E2BEFCF8FB7F894EC919A
:1002D0002E2B2C938FBFEACF3FB7F89480919303D6
:1002E00090919403A0919503B091960326B5A89B95
:1002F00005C02F3F19F00196A11DB11D3FBFBA2FB8
:10030000A92F982F8827BC01CD01620F711D811D77
:10031000911D42E0660F771F881F991F4A95D1F7FC
:1003200008958F929F92AF92BF92CF92DF92EF92F9
:10033000FF924B015C010E946C016B017C010E94E9
:100340006C016C197D098E099F09683E7340810517
:100350009105A8F321E0821A9108A108B10888EE5E
:10036000C80E83E0D81EE11CF11C81149104A10485
:10037000B10429F7FF90EF90DF90CF90BF90AF903E
:100380009F908F9008952FB7F89460918F0370918C
:10039000900380919103909192032FBF08950F9342
:1003A0001F93CF93DF93C82FD62F86E0C89FF0010D
:1003B0001124EA5BFB4F11A2878D90A1813091053A
:1003C000F1F058F082309105F1F1039709F440C043
:1003D000DF91CF911F910F9108956623C9F361E0DA
:1003E00070E08C2F0E948D000E94C30160939E04D8
:1003F00070939F048093A0049093A104E9CF0E947E
:10040000C30100919E0410919F042091A00430919B
:10041000A104AB01BC01401B510B620B730B80911B
:10042000B0049091B104B0E0A0E084179507A6074E
:10043000B70748F462E070E08C2FDF91CF911F91F5
:100440000F910C948D0063E070E0D111C1CFF4CF17
:1004500070E060E0F1CF862F642F0C943001862F7E
:10046000642F0C940201862F0C94D90008950895EE
:10047000AF92BF92CF92DF92EF92FF920F931F93B2
:10048000CF93DF936C017B018B01040F151FEB01F0
:100490005E01AE18BF08C017D10759F06991D601A7
:1004A000ED91FC910190F081E02DC6010995892B19
:1004B00079F7C501DF91CF911F910F91FF90EF90D8
:1004C000DF90CF90BF90AF900895FC01538D448D85
:1004D000252F30E0842F90E0821B930B541710F0EF
:1004E000CF96089501970895FC01918D828D9817FC
:1004F00061F0A28DAE0FBF2FB11D5D968C91928DD4
:100500009F5F9F73928F90E008958FEF9FEF089504
:10051000FC01918D828D981731F0828DE80FF11DCD
:10052000858D90E008958FEF9FEF0895FC01918DE8
:10053000228D892F90E0805C9F4F821B91098F73E1
:100540009927089587E993E00E94960221E0892B7C
:1005500009F420E0822F089580E090E0892B29F0B3
:100560000E94A20281110C9400000895FC01A48D48
:10057000A80FB92FB11DA35ABF4F2C91848D90E0C5
:1005800001968F739927848FA689B7892C93A089A8
:10059000B1898C91837080648C93938D848D981332
:1005A00006C00288F389E02D80818F7D80830895C5
:1005B000EF92FF920F931F93CF93DF93EC0181E0B3
:1005C000888F9B8D8C8D98131AC0E889F98980815A
:1005D00085FF15C09FB7F894EE89FF896083E8898D
:1005E000F98980818370806480839FBF81E090E07F
:1005F000DF91CF911F910F91FF90EF900895F62E0C
:100600000B8D10E00F5F1F4F0F731127E02E8C8DA5
:100610008E110CC00FB607FCFACFE889F9898081EA
:1006200085FFF5CFCE010E94B602F1CFEB8DEC0F26
:10063000FD2FF11DE35AFF4FF0829FB7F8940B8F07
:10064000EA89FB8980818062CFCFCF93DF93EC0171
:10065000888D8823B9F0AA89BB89E889F9898C91AA
:1006600085FD03C0808186FD0DC00FB607FCF7CF66
:100670008C9185FFF2CF808185FFEDCFCE010E9466
:10068000B602E9CFDF91CF910895089520910F032D
:10069000260F3327331F21323105ECF42091580304
:1006A000FC0190E080E0243069F082E00895A091A0
:1006B0000F032191AC0141515D4FA40FB52FB11D26
:1006C0002C930196861798F380910F03680F60931F
:1006D0000F0380E0089581E008951092580381E0AF
:1006E000809357031092320361E082E10E9402017D
:1006F00061E083E10E940201E9EBF0E080818E7FFE
:10070000808380818D7F808388E48093B80085E436
:100710008093BC000895CF93DF9391E09093EE0215
:100720008823B9F0C091B800D091BA008091BC0084
:100730008A7B8093BC0060E082E10E94020160E05D
:1007400083E10E9402010E946D03D093BA00C0931E
:10075000B800DF91CF9108950895E09187038091CB
:100760008603E81730F4F0E0E253FD4F808190E01B
:1007700008958FEF9FEF08959091870380918603EE
:100780002FEF3FEF981748F4E92FF0E0E253FD4FC9
:10079000208130E09F5F90938703C9010895809185
:1007A000860390918703891B990B0895CF92DF925E
:1007B000EF92FF920F931F93CF93DF937C01CB01B6
:1007C0008A0120915E03222389F0EB016B01C40EA4
:1007D000D51ECC15DD0569F06991D701ED91FC912D
:1007E0000190F081E02DC7010995F3CF642F0E949D
:1007F0004603C801DF91CF911F910F91FF90EF90B9
:10080000DF90CF900895CF93DF931F92CDB7DEB7DF
:10081000698320915E032223F9F020918403203222
:1008200058F021E030E0FC013383228390E080E047
:100830000F90DF91CF91089580918503E82FF0E02C
:10084000E15AFC4F998190838F5F80938503809359
:10085000840381E090E0ECCF61E0CE0101960E943C
:100860004603F7CFCF92DF92EF92FF920F931F9341
:10087000CF93DF93FC01C48121E020935E03C093FA
:100880007F0310928503109284038385682B84E391
:1008900094E00E940304D0918403D13208F092C006
:1008A0000E946C016B017C0180915803811165C02D
:1008B00082E08093580381E0809357038FEF809309
:1008C000560310925503D0935403AFE5B3E0E4E32D
:1008D000F3E080E0D81385C0109233038091330396
:1008E000CC0FC82BC093330380913203813009F0C1
:1008F0007CC0109232030E946C016B017C018091DC
:1009000033038093BB0080915A0390915B03A091C5
:100910005C03B0915D03892B8A2B8B2B99F00E948D
:100920006C0100915A0310915B0320915C0330919C
:100930005D036C197D098E099F09061717072807A3
:100940003907E0F18091BC0083FDD9CF85EC80931D
:10095000BC000E946C016B017C01809158038230C5
:1009600009F445C0809156038F3F61F18091560391
:10097000803241F18091560325C080915A039091B5
:100980005B03A0915C03B0915D03892B8A2B8B2BB9
:1009900009F48ACF0E946C0100915A0310915B0305
:1009A00020915C0330915D036C197D098E099F09CC
:1009B000061717072807390708F076CF80915903E3
:1009C0000E948B03109285031092840310925E03A1
:1009D000DF91CF911F910F91FF90EF90DF90CF901B
:1009E00008959D9191938F5F75CF85EEB0CF8091E3
:1009F0005A0390915B03A0915C03B0915D03892B36
:100A00008A2B8B2B09F4A9CF0E946C0100915A0309
:100A100010915B0320915C0330915D036C197D099B
:100A20008E099F09061717072807390708F095CF81
:100A3000C5CF90E080E008950F931F93CF938C0172
:100A4000C62F0E9432046C2F6460C8010E943204D9
:100A50006C2F6B7FC8010E94320483EC90E00197F9
:100A6000F1F7CF911F910F9108950F931F93CF939B
:100A7000DF938C01D62FC42F607F642B0E941C054E
:100A800080E1D89FB00111246C2BC801DF91CF9178
:100A90001F910F910C941C05CF93DF93CDB7DEB758
:100AA00028970FB6F894DEBF0FBECDBF98E0E4E202
:100AB000F1E0DE01119601900D929A95E1F7909187
:100AC000BE04961708F46FEF262F30E0220F331F75
:100AD00041E050E04C0F5D1F240F351FF90160818C
:100AE000680F606840E085EB94E028960FB6F894B4
:100AF000DEBF0FBECDBFDF91CF910C94350540E036
:100B000061E085EB94E00E9435058BE39FE101975E
:100B1000F1F7089541E00E94350581E090E00895E5
:100B2000FB0101900020E9F73197AF01461B570BFD
:100B3000DC01ED91FC910280F381E02D09948F920C
:100B40009F92AF92BF92EF92FF920F931F93CF931A
:100B5000DF93CDB7DEB7A1970FB6F894DEBF0FBE17
:100B6000CDBF7C01FA01CB0119A2223008F42AE0A2
:100B70008E010F5D1F4F822E912CB12CA12CBF0135
:100B8000A50194010E94FC0EF901CA016A300CF51E
:100B9000605DD8016E938D01232B242B252B79F7D3
:100BA00090E080E0109721F0BD01C7010E94900500
:100BB000A1960FB6F894DEBF0FBECDBFDF91CF91E7
:100BC0001F910F91FF90EF90BF90AF909F908F90EB
:100BD0000895695CDECFCF92DF92EF92FF926C01B5
:100BE000990FEE08FF08F7FE18C041E06DE285EBB3
:100BF00094E00E94350544275527BA014C195D0938
:100C00006E097F092AE085EB94E00E949F0501961A
:100C1000FF90EF90DF90CF9008952AE0B701A601F2
:100C200085EB94E0FF90EF90DF90CF900C949F05C0
:100C3000CF93DF93BC0187E993E00E949005EC011C
:100C400066E671E087E993E00E9490058C0F9D1F96
:100C5000DF91CF9108950C9490050E947F0560E08C
:100C600080E00E944C0569E671E085EB94E00E940B
:100C70002B0661E080E00E944C0565E771E085EBA2
:100C800094E00C942B060E947F0560E080E00E94B7
:100C90004C0562E871E085EB94E00E942B06E0E4ED
:100CA000F4E0448155816081718185EB94E00E947C
:100CB000380261E080E00E944C056FE871E085EB4E
:100CC00094E00C942B060F931F93CF93DF93EC01CA
:100CD00088819981009759F02A813B81261737072F
:100CE00030F081E0DF91CF911F910F9108958B013A
:100CF0006F5F7F4F0E945F10009759F09983888340
:100D00001B830A832C813D81232B59F7FC01108220
:100D1000E8CF80E0E7CFEF92FF920F931F93CF933E
:100D2000DF93EC017B01198218821B821A821D82DB
:100D30001C82FB0101900020E9F731978F01061B0F
:100D4000170BB8010E94630628813981811113C0F5
:100D50002115310519F0C9010E94D60F1982188298
:100D60001D821C821B821A82DF91CF911F910F91ED
:100D7000FF90EF9008951D830C83B701C901DF91A7
:100D8000CF911F910F91FF90EF900C94251170E07F
:100D900060E080E494E00E9463062091400430917A
:100DA0004104811113C02115310519F0C9010E94B8
:100DB000D60F1092410410924004109245041092F4
:100DC0004404109243041092420408951092450482
:100DD0001092440468E671E0C9010C94251181E089
:100DE00080938C030E94C7060E947F0560E080E02C
:100DF0000E944C056CE971E085EB94E00E942B06A3
:100E000061E080E00E944C056FE871E085EB94E0C2
:100E10000E942B068BEA91E00E9418068DEB91E070
:100E20000C94180685ED8093BC0080915A03909134
:100E30005B03A0915C03B0915D030796A11DB11DFA
:100E400023E0B695A795979587952A95D1F7209198
:100E5000BC0024FD03C010925803089540915A032A
:100E600050915B0360915C0370915D03452B462BB1
:100E7000472B69F30097A105B10541F02AE22A95B5
:100E8000F1F700C00197A109B109E1CF80915903A1
:100E90000C948B031F920F920FB60F9211242F9375
:100EA0003F938F939F93AF93BF9380918F039091C4
:100EB0009003A0919103B091920330918E0323E0AF
:100EC000230F2D3758F50196A11DB11D20938E03D8
:100ED00080938F0390939003A0939103B093920318
:100EE0008091930390919403A0919503B091960300
:100EF0000196A11DB11D8093930390939403A09339
:100F00009503B0939603BF91AF919F918F913F91BD
:100F10002F910F900FBE0F901F90189526E8230F6A
:100F20000296A11DB11DD2CF1F920F920FB60F9244
:100F300011242F933F934F935F936F937F938F93DE
:100F40009F93AF93BF93EF93FF9387E993E00E9442
:100F5000B602FF91EF91BF91AF919F918F917F91D9
:100F60006F915F914F913F912F910F900FBE0F9016
:100F70001F9018951F920F920FB60F9211242F9366
:100F80008F939F93EF93FF93E091A703F091A803B2
:100F90008081E091AD03F091AE0382FD1BC0908192
:100FA0008091B0038F5F8F732091B103821741F05E
:100FB000E091B003F0E0E956FC4F958F8093B003C9
:100FC000FF91EF919F918F912F910F900FBE0F90F6
:100FD0001F9018958081F4CF1F920F920FB60F9239
:100FE00011242F933F934F935F936F937F938F932E
:100FF0009F93AF93BF93EF93FF938091B900887F46
:10100000803609F44AC0F0F5883209F4A7C018F513
:10101000803109F49BC0B8F4882309F4F9C0883002
:1010200009F494C0FF91EF91BF91AF919F918F917F
:101030007F916F915F914F913F912F910F900FBED4
:101040000F901F901895883109F488C0803251F7AD
:101050008093560314C0803409F49DC040F480335B
:10106000B9F38833F9F68093560385ECB0C0803528
:1010700009F485C0883509F496C0883499F60E9431
:101080001207D0CF883909F48CC038F5883729F099
:1010900050F4883611F0803729F683E080935803A6
:1010A0001092310357C0883809F47BC0803919F099
:1010B000803809F0B7CF80913103803208F071C0D9
:1010C000E091310381E08E0F809331038091BB006A
:1010D000F0E0EF5EFC4F80833DC0803B39F0E0F4F0
:1010E000803A09F479C0883A09F09CCF84E0809373
:1010F00058031092100310920F03E0918203F091B5
:101100008303099580910F0381110FC081E08093C3
:101110000F031092EF0209C0803C09F4A6CF883C6F
:1011200009F4A3CF883B09F07DCFE091100381E063
:101130008E0F80931003F0E0E151FD4F808180938A
:10114000BB009091100380910F0329C0809133035D
:101150008093BB0085EC8093BC0064CF90915503D5
:1011600080915403981758F5E091550381E08E0F54
:1011700080935503F0E0EC5CFC4F8081E9CFE09177
:10118000550381E08E0F809355038091BB00F0E002
:10119000EC5CFC4F80839091550380915403981729
:1011A000C8F285E8D8CFE091550381E08E0F809397
:1011B00055038091BB00F0E0EC5CFC4F8083809194
:1011C000570381115CCF81E08093320384EA8093DE
:1011D000BC001092580326CF85EC8093BC0010927F
:1011E000580380913103803230F4E0913103F0E014
:1011F000EF5EFC4F10826091310370E0E09180035C
:10120000F091810381E193E00995109231030ACFB7
:101210001092560334CF10929A031092990388EEDD
:1012200093E0A0E0B0E080939B0390939C03A09395
:101230009D03B0939E0320E331E030939803209305
:10124000970325EC30E03093A4032093A30324EC10
:1012500030E03093A6032093A50320EC30E03093D8
:10126000A8032093A70321EC30E03093AA03209336
:10127000A90322EC30E03093AC032093AB0326ECBF
:1012800030E03093AE032093AD031092B003109280
:10129000B1031092B2031092B3031092370410926C
:1012A00036048093380490933904A0933A04B093A1
:1012B0003B0482E491E090933504809334041092CF
:1012C000B8041092B7048EE591E09093B604809331
:1012D000B50487E28093B90480E18093BD0482E085
:1012E0008093BE041092BF0488E08093C0041092E3
:1012F000480410924C0410924B0410924D0484E563
:1013000091E09093470480934604E2E6F4E0108273
:10131000148213821582369684E0EE39F807B9F705
:101320008AE091E09093A9048093A80486E091E07C
:101330009093AB048093AA0484E08093AC048093E0
:10134000AD048EE091E09093A7048093A6048AE018
:1013500090E09093AF048093AE0484EF91E090937B
:10136000B1048093B0041092B4041092B3041092AC
:10137000A2041092A3041092A4041092A504109247
:10138000B20468E671E080E494E00C948B06CF939D
:10139000DF93CDB7DEB72A970FB6F894DEBF0FBE46
:1013A000CDBF789484B5826084BD84B5816084BDEE
:1013B00085B5826085BD85B5816085BD80916E00F3
:1013C000816080936E001092810080918100826024
:1013D0008093810080918100816080938100809161
:1013E00080008160809380008091B1008460809350
:1013F000B1008091B00081608093B00080917A004C
:10140000846080937A0080917A00826080937A0071
:1014100080917A00816080937A0080917A00806860
:1014200080937A001092C10062E082E00E94300155
:1014300061E084E00E9430011092870310928603DD
:1014400010928503109284030E946D0386E392E05C
:10145000909383038093820387E392E090938103C8
:10146000809380031092BA048091BE04823018F0F9
:1014700098E09093BA049091BF04992339F0813099
:1014800029F48091BA0484608093BA0462E370E026
:1014900080E090E00E9491016091C00485EB94E0AF
:1014A0000E94320468EE73E080E090E00E949101B7
:1014B00060E385EB94E00E941C050BE416E4C80190
:1014C0000197F1F760E385EB94E00E941C05C801E9
:1014D0000197F1F760E385EB94E00E941C0583E53A
:1014E00092E00197F1F760E285EB94E00E941C0521
:1014F0006091BA04606240E085EB94E00E9435059B
:1015000084E08093BB0440E06CE085EB94E00E94B3
:1015100035050E947F0512E01093BC0440E066E0B0
:1015200085EB94E00E94350540E062E085EB94E0B5
:101530000E9435058BE39FE10197F1F788E08093E6
:10154000C00460E085EB94E00E9432040E947F05B5
:101550000E942D06E091A703F091A8031083E0916B
:10156000A303F091A4031082E091A503F091A603D8
:101570008FEC80831092AF03E091AB03F091AC034A
:1015800086E08083E091A903F091AA0380818061C5
:101590008083E091A903F091AA0380818860808311
:1015A000E091A903F091AA03808180688083E09193
:1015B000A903F091AA0380818F7D808387EE91E05B
:1015C0000E94180610E6412E1AEE512E612C712C45
:1015D00081E08093B2040E94C3010091A2041091A3
:1015E000A3042091A4043091A504AB01BC01401BCD
:1015F000510B620B730B8091AE049091AF04B0E07D
:10160000A0E084179507A607B70708F0CDC110E042
:101610008091AC04181760F4E091A804F091A9043B
:10162000E10FF11D62E080810E9430011F5FF0CF69
:10163000912C8091AD04981608F063C0E92CF12C30
:10164000E091AA04F091AB04EE0DFF1D61E08081F2
:101650000E943001E091AA04F091AB04EE0DFF1D51
:1016600060E080810E94020181E090E0A0E0B0E0B3
:10167000092C04C0880F991FAA1FBB1F0A94D2F718
:101680005C016C01C094D094812C8091AC048816CC
:1016900008F5082D10E0E091A804F091A904E00FEE
:1016A000F11F80810E94D9000C5F1F4F000F111F96
:1016B000F801EA5BFB4F892B41F4808191818A29F3
:1016C0009B29918380838394E0CF808191818C21B9
:1016D0009D21F7CFE091AA04F091AB04EE0DFF1D20
:1016E00061E080810E9402018091AA049091AB0484
:1016F000E80EF91E60E0F70180810E9430019394AA
:1017000098CFA6E4EA2EA4E0FA2E8701F801878D8F
:1017100090A1892B31F4148E4FEF5FEF568F458FD8
:1017200011A20A5F1F4F82E894E08017910771F7BA
:10173000D12C8091AC04D81608F053C0C12CAD2C2C
:10174000B12CAA0CBB1CF501E25BFB4F5F012091A1
:10175000AD04C21608F043C0F501608171810C2C04
:1017600002C0769567950A94E2F7D29E9001112403
:101770002C0D311DE6E4F4E080E0458D568D2417F4
:10178000350709F49CC28F5F36968A30B1F760FF47
:1017900024C0E6E4F4E090E080E0448D411118C0FC
:1017A000E091A604F091A704E20FF31F408156E0F8
:1017B000589FF001599FF00D1124EA5BFB4F448FB5
:1017C000368F258F10A2178E61E00E94CF0105C0D1
:1017D000019636968A30910501F7C394B8CFD39419
:1017E000A8CFD12CF70181A18111D82EF6E0EF0E00
:1017F000F11CE016F106B1F70E94C3016093A20448
:101800007093A3048093A4049093A504DD2009F4AD
:10181000CBC080916704882309F4C6C08091650419
:1018200090916604019709F0BFC080916204811114
:10183000BEC082E00E94D90021E0009709F420E0B8
:1018400020930501892BA1F480910401882381F064
:1018500010918D0362E370E080E090E00E949101BE
:101860001111B0C180918C03811102C00E94EF065A
:10187000809105018093040180918D03882309F4F0
:1018800011C20E94C3010091880310918903209125
:101890008A0330918B036B017C01C01AD10AE20AE2
:1018A000F30AC701B60128EE33E040E050E00E94A1
:1018B000FC0E643671058105910508F0A8C16091A0
:1018C00000017091010180910201909103016C1956
:1018D0007D098E099F09A30192010E94FC0E2F83AE
:1018E000388749875A872F80388428EE33E040E0D4
:1018F00050E00E94FC0E490189010E947F0560E0D2
:1019000080E00E944C0560E872E085EB94E00E9464
:101910002B0661E080E00E944C055AE02516310458
:1019200034F460E972E085EB94E00E942B068F812D
:1019300098850E94EB056EE872E085EB94E00E94CA
:101940002B060A30110534F460E972E085EB94E06F
:101950000E942B06C4010E94EB05209100013091EA
:1019600001014091020150910301C701B601E3E07A
:10197000660F771F881F991FEA95D1F70E94A60E60
:10198000590161E088E00E944C0510E000E00A1572
:101990001B050CF03CC141E06FEF85EB94E00E9429
:1019A00035050F5F1F4FF3CF1092B20442CF9091D5
:1019B0008C03992309F43DCF90ED980F9A3048F5A8
:1019C00000914404109145040430110508F031CF12
:1019D00089831A820F5F1F4FB80180E494E00E9450
:1019E0006306882399F0209140043091410480914E
:1019F000440490914504BE016F5F7F4F820F931F97
:101A00000E94251110934504009344040E9443064C
:101A100010CF833209F0B9C08091440490914504FD
:101A2000892B09F406CF80914004909141040097DE
:101A300009F47AC00E946A0E9B01215031092F30AF
:101A4000374208F075C0DB0120E63AEE0E942D0F08
:101A50006093000170930101809302019093030150
:101A600081E080938D030E94C3016093880370938B
:101A7000890380938A0390938B030E947F0560E023
:101A800080E00E944C0565E072E085EB94E00E94E6
:101A90002B0661E080E00E944C0564E172E085EB7A
:101AA00094E00E942B0660910001709101018091E9
:101AB000020190910301A30192010E94FC0EBA0160
:101AC000A9012AE085EB94E00E949F056FE172E096
:101AD00085EB94E00E942B066CED75E080E090E0D1
:101AE0000E94910164E272E087E993E00E942B0674
:101AF00060910001709101018091020190910301B8
:101B0000A30192010E94FC0EBA01A9012AE087E913
:101B100093E00E949F0585E392E00E9418061092D0
:101B20008C030E94C70685CE60E070E0CB0184CFB5
:101B30006EE372E0CE0101960E948B060E947F0543
:101B400060E080E00E944C056CE472E085EB94E07C
:101B50000E942B0661E080E00E944C054D815E8171
:101B600069817A8185EB94E00E94380289819A81AB
:101B7000009711F00E94D60F6CED75E080E090E0C8
:101B80000E9491010E94EF0654CE8A3209F051CE94
:101B90008091440490914504009769F00197E09189
:101BA0004004F0914104E80FF91F9093450480939D
:101BB000440410822BCF10928C030E94C7060E940F
:101BC0002D0637CE10928D030E947F0560E080E0E5
:101BD0000E944C0563E572E085EB94E00E942B06C1
:101BE00061E080E00E944C0561E672E085EB94E0E4
:101BF0000E942B0682E792E00E94180660ED77E0D3
:101C000080E090E00E9491010E942D0631CE8091EB
:101C1000000190910101A0910201B0910301C81649
:101C2000D906EA06FB0608F43DC010928D030E9417
:101C30007F0560E080E00E944C0562E972E085EB80
:101C400094E00E942B0661E080E00E944C056DE963
:101C500072E085EB94E00E942B0688EA92E00E94F5
:101C6000180603E010E061E084E00E9402016CE2EB
:101C700071E080E090E00E94910160E084E00E94C9
:101C800002016CE271E080E090E00E94910101505D
:101C9000110949F760ED77E080E090E00E94910142
:101CA0000E942D0680E090E0892B09F491CC0E94DF
:101CB000A202882309F48CCC0E94000089CC6170B8
:101CC00084CD8091400490914104009711F00C94D0
:101CD000D60F08951F93FC0199278827BC01E8942B
:101CE00011911032E9F3193010F01E30C8F31B3295
:101CF00051F01D3249F4689406C00E94910E610FA4
:101D0000711D811D911D119110531A30B0F33EF4D5
:101D100090958095709561957F4F8F4F9F4F1F9144
:101D20000895592F482F372F262F660F771F881FAA
:101D3000991F660F771F881F991F620F731F841FDB
:101D4000951F660F771F881F991F0895052E97FB13
:101D50001EF400940E94BD0E57FD07D00E94FC0E99
:101D600007FC03D04EF40C94BD0E50954095309571
:101D700021953F4F4F4F5F4F0895909580957095F7
:101D800061957F4F8F4F9F4F08952F923F924F92B3
:101D90005F926F927F928F929F92AF92BF92CF92FB
:101DA000DF92EF92FF920F931F93CF93DF93CDB704
:101DB000DEB7CA1BDB0B0FB6F894DEBF0FBECDBF7C
:101DC00009942A88398848885F846E847D848C844D
:101DD0009B84AA84B984C884DF80EE80FD800C8156
:101DE0001B81AA81B981CE0FD11D0FB6F894DEBF39
:101DF0000FBECDBFED010895A1E21A2EAA1BBB1B99
:101E0000FD010DC0AA1FBB1FEE1FFF1FA217B307C6
:101E1000E407F50720F0A21BB30BE40BF50B661FDC
:101E2000771F881F991F1A9469F7609570958095A0
:101E300090959B01AC01BD01CF010895A29FB00117
:101E4000B39FC001A39F700D811D1124911DB29FEE
:101E5000700D811D1124911D08950E941E0FB7FF62
:101E60000895821B930B0895EE0FFF1F0590F491C8
:101E7000E02D09940F931F93CF93DF938230910548
:101E800010F482E090E0E091C304F091C40430E0EB
:101E900020E0B0E0A0E0309799F42115310509F475
:101EA0004AC0281B390B24303105D8F58A819B8123
:101EB0006115710589F1FB0193838283FE0111C0D5
:101EC000408151810281138148175907E0F048177A
:101ED000590799F4109761F012960C931297139684
:101EE0001C933296CF01DF91CF911F910F910895EE
:101EF0000093C3041093C404F4CF2115310551F0AD
:101F00004217530738F0A901DB019A01BD01DF0137
:101F1000F801C1CFEF01F9CF9093C4048093C304BB
:101F2000CDCFFE01E20FF31F81939193225031092F
:101F300039832883D7CF2091C1043091C204232B49
:101F400041F420912001309121013093C20420936B
:101F5000C10420911E0130911F012115310541F46A
:101F60002DB73EB74091220150912301241B350B20
:101F7000E091C104F091C204E217F307A0F42E1B14
:101F80003F0B2817390778F0AC014E5F5F4F2417DD
:101F9000350748F04E0F5F1F5093C2044093C104B1
:101FA000819391939FCFF0E0E0E09CCFCF93DF93BC
:101FB0000097E9F0FC01329713821282A091C304CA
:101FC000B091C404ED0130E020E01097A1F420812D
:101FD0003181820F931F2091C1043091C2042817D0
:101FE000390709F061C0F093C204E093C104DF91A6
:101FF000CF910895EA01CE17DF07E8F54A815B81AA
:102000009E0141155105B1F7E901FB83EA8349912E
:102010005991C40FD51FEC17FD0761F480819181A0
:102020000296840F951FE9019983888382819381A9
:102030009B838A83F0E0E0E012968D919C91139748
:102040000097B9F52D913C911197CD010296820F21
:10205000931F2091C1043091C2042817390739F623
:10206000309751F51092C4041092C304B093C20487
:10207000A093C104BCCFD383C28340815181840F1C
:10208000951FC817D90761F44E5F5F4F888199810A
:10209000480F591F518340838A819B819383828398
:1020A0002115310509F0B0CFF093C404E093C304C7
:1020B0009ECFFD01DC01C0CF13821282D7CFB0E0EA
:1020C000A0E0E5E6F0E10C94C70E8C01009751F416
:1020D000CB010E943A0F8C01C801CDB7DEB7E0E119
:1020E0000C94E30EFC01E60FF71F9C01225031090E
:1020F000E217F30708F49DC0D901CD91DC91119747
:10210000C617D70798F0C530D10530F3CE01049734
:102110008617970708F3C61BD70B2297C193D19355
:102120006D937C93CF010E94D60FD6CF5B01AC1A82
:10213000BD0A4C018C0E9D1EA091C304B091C40435
:10214000512C412CF12CE12C109731F58091C104D8
:102150009091C2048815990509F05CC0461657068F
:1021600008F058C080911E0190911F01009741F422
:102170008DB79EB74091220150912301841B950B8E
:10218000E817F90708F055C0F093C204E093C104C2
:10219000F90171836083A0CF8D919C911197129664
:1021A0006C90129713967C901397A815B90559F562
:1021B0006C0142E0C40ED11CCA14DB0420F1AC0156
:1021C0004A195B09DA011296159780F062827382D0
:1021D00051834083D9016D937C93E114F10471F034
:1021E000D7011396FC93EE93129776CF22968C0F1D
:1021F0009D1FF90191838083F301EFCFF093C40415
:10220000E093C30469CF4816590608F42C017D01F8
:10221000D3019ACFCB010E943A0F7C01009749F07D
:10222000AE01B8010E941C11C8010E94D60F87019F
:1022300053CF10E000E050CFFB01DC0102C0019061
:102240000D9241505040D8F70895FB01DC010190F8
:102250000D920020E1F7089510E0C2E6D0E004C03E
:10226000FE010E94340F2196C336D107C9F7F894B6
:02227000FFCF9E
:10227200E0930400010105060708090A0B0C31323C
:10228200334134353642373839432A30234400004B
:10229200C50480000000400014005400000000004B
:1022A200D8023802650225039602740288020000F1
:1022B20000000304D6031905AC03CF03BC03AD032E
:1022C200000000002B022F023302000000008A05EA
:1022D2003802190545030D0A00536C6565702054D8
:1022E200696D657200507265737320427574746F04
:1022F2006E00456E746572206D696E733A2000231C
:10230200204F4B20202A204261636B00456E74658A
:1023120072206D696E757465733A0054696D65203B
:1023220073657474696E67206D6F646500456E74C1
:102332006572206D696E7574657320282320746F31
:1023420020636F6E6669726D2C202A20746F206381
:10235200616E63656C2900536C6565702054696D0C
:1023620065722077697468204B65797061642052C8
:10237200656164790054696D657220537461727489
:10238200656421004475726174696F6E3A200020A1
:102392006D696E0054696D65722073746172746543
:1023A20064202D2000206D696E7574657300496E7E
:1023B20076616C69642074696D6521004572726F83
:1023C200723A0054696D65722053746F707065645F
:1023D20000507265737320746F207265737461723A
:1023E200740054696D65722073746F707065640057
:1023F20054696D652052656D61696E696E673A0058
:10240200300054696D6527732055702100536C6547
:102412006570204D6F64650054696D657220666950
:102422006E69736865642120536C656570206D6FF9
:0E2432006465206163746976617465640000FE
:00000001FF
